:100000000C942A000C9447000C9447000C94470071
:100010000C9447000C9447000C9447000C94470044
:100020000C9447000C9447000C9447000C94470034
:100030000C9447000C9447000C9447000C94470024
:100040000C9447000C9447000C9447000C94470014
:100050000C94470011241FBECFE5D8E0DEBFCDBF12
:1000600010E0A0E6B0E0E8E3F6E002C005900D92F3
:10007000A838B107D9F720E0A8E8B0E001C01D9288
:10008000AA38B207E1F70E94BA020C941A030C9442
:100090000000843018F5683008F5442319F0413029
:1000A000F1F0089521E030E001C0220F6A95EAF7EF
:1000B0002095823061F0833071F0813021F08AB375
:1000C00028232ABB089587B3282327BB089584B328
:1000D000282324BB089581B3282321BB089521E060
:1000E00030E001C0220F6A95EAF7823051F0833088
:1000F00059F0813019F08AB3282BE3CF87B3282B2E
:10010000E4CF84B3282BE5CF81B3282BE6CF84300E
:1001100018F5683008F5442319F04130F1F00895DE
:1001200021E030E001C0220F6A95EAF72095823085
:1001300061F0833071F0813021F08BB328232BBB29
:10014000089588B3282328BB089585B3282325BBA9
:10015000089582B3282322BB089521E030E001C036
:10016000220F6A95EAF7823051F0833059F08130DE
:1001700019F08BB3282BE3CF88B3282BE4CF85B3BA
:10018000282BE5CF82B3282BE6CF843020F56623D9
:1001900019F0613079F00895823041F0833041F0F8
:1001A000813011F01ABA089517BA089514BA089553
:1001B00011BA0895823051F0833059F0813019F02E
:1001C0008FEF8ABB08958FEF87BB08958FEF84BBB5
:1001D00008958FEF81BB0895843068F4823041F038
:1001E000833041F0813011F06BBB089568BB0895F6
:1001F00065BB089562BB0895843080F4683070F464
:1002000021E030E001C0220F6A95EAF7823051F018
:10021000833051F0813021F089B32823822F089553
:1002200086B3FBCF83B3F9CF80B3F7CF843050F4DC
:10023000683040F4442321F0413021F40C948700CD
:1002400040E0FCCF0895CF93DF93843070F46830A2
:1002500060F4D62FC82F41E00E94490041E06D2F85
:100260008C2FDF91CF910C948700DF91CF9108956F
:10027000CF93DF93843070F4683060F4D62FC82FAA
:1002800041E00E94490040E06D2F8C2FDF91CF911B
:100290000C948700DF91CF910895843020F468306A
:1002A00010F40C94FC0081E008951F93CF93DF932A
:1002B000843080F4683070F4142FD62FC82F40E0BB
:1002C0000E944900412F6D2F8C2FDF91CF911F91FC
:1002D0000C941601DF91CF911F910895CF93C82FF1
:1002E00040E061E080E00E94870040E062E080E062
:1002F0000E9487006C2F82E00E94EC0041E063E0E6
:1003000080E00E9487008FEC97E00197F1F700C032
:10031000000040E063E080E00E9487008FEC97E0FF
:100320000197F1F700C00000CF91089541E063E02C
:1003300080E00E94490041E061E080E00E944900C5
:1003400041E062E080E00E94490061E082E00E94BA
:10035000C5002FEB8AED90E0215080409040E1F7FE
:1003600000C000008CE30E946E018FEC97E00197C3
:10037000F1F700C000008FE00E946E018FEC97E063
:100380000197F1F700C0000081E00E946E018FE943
:100390009FE00197F1F700C0000086E00C946E0129
:1003A000CF93C82F41E061E080E00E94870040E0E9
:1003B00062E080E00E9487006C2F82E00E94EC00E7
:1003C00041E063E080E00E9487008FEC97E00197B6
:1003D000F1F700C0000040E063E080E00E94870089
:1003E0008FEC97E00197F1F700C00000CF910895DE
:1003F000CF93C82F842F662331F0613041F08C2FCA
:10040000CF910C94D00180580E946E01F8CF805497
:10041000FBCF882319F0813029F0089580E8860FFA
:100420000C946E0180ECFBCF0F931F93CF93DF935F
:100430008C0188E0860F880F880F880F0E946E015C
:10044000E801085F1F4F89910E94D001C017D107B2
:10045000D1F7DF91CF911F910F9108958CE00C940B
:100460006E01EF92FF921F93CF93DF937C01D62F03
:10047000142FC22F0E942E026C2FC7010E9414025B
:10048000612F8D2F0E9409028C2FDF91CF911F9138
:10049000FF90EF900C94D001CF93DF93EC01899102
:1004A000811103C0DF91CF9108950E94D001F7CF51
:1004B00081E00E946E018FE99FE00197F1F700C093
:1004C0000000089580918900882351F1809188006F
:1004D0008F5F80938800813071F482EC0E946E01FE
:1004E00080E20E94D0011092610082E80E946E01B9
:1004F00081E00C94D001843099F482E80E946E016E
:1005000080E20E94D00181E08093610082EC0E9431
:100510006E0181E00E94D001109289001092880043
:10052000089540917200403120F461E080E20E9421
:10053000F8014091600047FD04C061E082E00E9444
:10054000F80180916000823059F4909161009130FF
:1005500039F40E9458028DE790E00E944C02FFCFD0
:1005600080937200815087FD03C0809360000895DE
:100570008FE0FBCFCF93DF93CDB7DEB72A970FB6CF
:10058000F894DEBF0FBECDBF0E9496018AE0E3E77C
:10059000F0E0DE01119601900D928A95E1F762E09C
:1005A00080E00E940902CE0101960E944C022FEFCA
:1005B00089E698E1215080409040E1F700C00000BA
:1005C0000E94580261E08AE690E00E94140262E014
:1005D00082E690E00E94140240E060E081E00E9428
:1005E000490041E060E081E00E9487000E942E0205
:1005F00021E040E061E08AE690E00E94310260E0A4
:1006000081E00E94FC00811107C080918900811166
:1006100003C081E0809389000E9491020E946202DF
:100620002FEF80E792E0215080409040E1F700C03A
:080630000000E5CFF894FFCFB4
:100638000F010415151F040404040707161F0A0AEE
:1006480000000F53746172742047616D6547616DD6
:0806580065204F766572000079
:00000001FF
